:020000020000FC
:0C0000000C9433000C9432000C9432007D
:10005C000C946E000C94320018954FEF4DBF41E29A
:10006C004EBF789440EF40930A014FEF47B948B91F
:10007C006FEF60BB61B9662761BB62B978E31ED1D3
:10008C002DD146D178E31AD129D139D178E316D1C3
:10009C0025D178E313D122D178E010D11FD171E0B2
:1000AC000DD11CD176E00AD119D17EE007D116D141
:1000BC0088279927AA27BB27FF27682FB9D070EC70
:1000CC00FDD00CD1BB27FF27692FB2D028C027C089
:1000DC006FB76F93DF93CF93BF93AF93E13009F07A
:1000EC0017C0A0910202B09103021196A43660E0F1
:1000FC006B0749F4EE27C2E0D2E066276993688368
:10010C00AA27BB2705C0A0930202B093030200C02C
:10011C00AF91BF91CF91DF916F916FBF1895C2E0F6
:10012C00D2E066276993688360E064BD62E065BDD8
:10013C0061E060936E007894BB273FEE1127662731
:10014C0044275527E130C9F3E1E01430A9F330938B
:10015C000B014FEF4A95F1F7409109014F704F3069
:10016C0051F021E00027043031F0542F522331F0AC
:10017C000395220FF8CF330F1395E7CFB130E9F287
:10018C00612F102F062F133061F00330A9F1402F8F
:10019C00440F400F410F4F5F6AE0969F902D940FD4
:1001AC0036C0013039F0023039F0033051F000C064
:1001BC00A1E009C0A2E007C07DE687D08FD0A3E004
:1001CC0002C0A4E000C0A03011F1A13039F0A2307F
:1001DC0041F0A33049F0A43059F019C0890F992788
:1001EC0016C0891B992713C0899F802D99270FC092
:1001FC00592F94D099270BC0103019F0113019F0E9
:10020C009CCF882704C06AE0969F902D00C071E0B7
:10021C0055D064D098B9BB27FF27682F09D070EC54
:10022C004DD05CD0BB27FF27692F02D0B1E085CF22
:10023C00BF936436B0F4B030D1F4BB274AE06417F6
:10024C0098F4F130B9F0B030A9F4BB27B62FBF93B6
:10025C00F395F33091F0F23001F1F13049F1BF91A7
:10026C000895B3956456E5CFB3956A50E7CFBF9325
:10027C00F395E3CFBF93F395E8CF5F914F916F91D7
:10028C00762F705D22D02AD0742F705D1ED026D0B0
:10029C00752F705D1AD022D0E2CF5F914F91742FE1
:1002AC00705D13D01BD0752F705D0FD017D0D7CFCA
:1002BC006F91762F705D09D011D0D1CF71BB1FD04B
:1002CC00169A1DD016981BD0089571BB179A17D08B
:1002DC00169A15D0169813D0179808957F937727F0
:1002EC0070BB71BB159A0BD0169A09D07FB11698BA
:1002FC0077FDF9CF15987FEF70BB7F9108958F93A1
:10030C009F939FE08CE90197F1F79F918F9108954E
:10031C00F6DFF5DFF4DFF3DFF2DF08954F935F9341
:10032C006F934427662763958894881F441F10F0A9
:10033C00451718F0451B089401C08894661FA0F758
:0A034C00862F6F915F914F91089585
:00000001FF
