:020000020000FC
:100000000C9402007FEF7DBF71E27EBF7FEF70BB7B
:1000100071B9772771BB72B94FEF47B948B99EEEF6
:100020005EEE44E654171CF471E257D05FD05EEEEA
:1000300044E6545658B99EEE3327222711277727D6
:10004000192F1436A8F42030C9F422274AE01417D7
:1000500090F43130B1F02030A1F42227212F2F93DA
:100060003395333089F03230F9F0313041F12DC021
:1000700023951456E6CF23951A50E8CF2F93339546
:10008000E4CF2F933395E9CF5F914F911F91712F5B
:10009000705D23D02BD0742F705D1FD027D0752FAB
:1000A000705D1BD023D011C05F914F91742F705D94
:1000B00014D01CD0752F705D10D018D006C01F91C1
:1000C000712F705D0AD012D000C0FFCF71BB1FD05E
:1000D000169A1DD016981BD0089571BB179A17D089
:1000E000169A15D0169813D0179808957F937727EE
:1000F00070BB71BB159A0BD0169A09D07FB11698B8
:1001000077FDF9CF15987FEF70BB7F9108958F939E
:100110009F939FE08CE90197F1F79F918F9108954C
:0C012000F6DFF5DFF4DFF3DFF2DF089517
:00000001FF
