:020000020000FC
:0C0000000C9433000C9432000C9432007D
:10005C000C943A000C943200189501E20EBF0FEF8D
:10006C000DBF0FEF07B942C00FB70F93DF93CF93BC
:10007C009F938F934F933F93809102029091030231
:10008C000196803D03E0900721F520939A00269578
:10009C001795C2E0D2E000270993088380910002F3
:1000AC00909101020196809300029093010248E026
:1000BC0030E08830930701F701C00FC02FEF1FEF1E
:1000CC00C0E0D2E0002709930883D6CF40E8242B68
:1000DC00DCCF80930202909303023F914F918F915A
:1000EC009F91CF91DF910F910FBF18952FEF27B9EB
:1000FC002FEF1FEFC2E0D2E0002709930883C0E086
:10010C00D2E000270993088300E004BD02E005BD9E
:10011C0001E000936E00789400E10FEF0DB90FEF42
:10012C0000939A00002700939B0001E0009391003C
:08013C0001E200939000FFCFE7
:00000001FF
