:020000020000FC
:100000000C9402000FEF0DBF01E20EBF0FEF00BB1B
:1000100001B9002701BB02B908E328D037D050D07E
:1000200008E324D033D043D008E320D02FD008E316
:100030001DD02CD008E01AD029D001E017D026D04E
:1000400006E014D023D00EE011D020D008E415D063
:100050001DD005E612D01AD00CE60FD017D00CE652
:100060000CD014D00FE609D011D0FFCF01BB1FD0A8
:10007000169A1DD016981BD0089501BB179A17D059
:10008000169A15D0169813D0179808950F93002735
:1000900000BB01BB159A0BD0169A09D00FB1169868
:1000A00007FDF9CF15980FEF00BB0F9108958F93BF
:1000B0009F939FE08CE90197F1F79F918F910895AD
:0C00C000F6DFF5DFF4DFF3DFF2DF089578
:00000001FF
