:020000020000FC
:100000000C940B000C940A000C940A000C944B0006
:100010000C940A0018950FEF0DBF01E20EBF0FEF11
:1000200000BB01B9002701BB02B92FEF27B928B9DE
:10003000789412E0109369001DB314601DBB08E3AF
:1000400034D043D05CD008E330D03FD04FD008E369
:100050002CD03BD008E329D038D008E026D035D0CA
:1000600001E023D032D006E020D02FD00EE01DD00A
:100070002CD008E421D029D005E61ED026D00CE6ED
:100080001BD023D00CE618D020D00FE615D01DD001
:1000900000C07894FECF1FB71F9301E20DD015D09A
:1000A00015E518B91F911FBF189501BB1FD0169AEF
:1000B0001DD016981BD0089501BB179A17D0169A19
:1000C00015D0169813D0179808950F93002700BBEA
:1000D00001BB159A0BD0169A09D00FB1169807FDDF
:1000E000F9CF15980FEF00BB0F9108958F939F9351
:1000F0009FE08CE90197F1F79F918F910895F6DFCA
:0A010000F5DFF4DFF3DFF2DF08950E
:00000001FF
