:020000020000FC
:0C0000000C944B000C944A000C944A0035
:10008C000C9452000C944A00189501E20EBF0FEF2D
:10009C000DBF0FEF07B941C00FB70F93DF93CF938D
:1000AC009F938F934F933F93809102029091030201
:1000BC00019684380EE1900719F520939A00269545
:1000CC001795C2E0D2E000270993088380910002C3
:1000DC00909101020196809300029093010230E00E
:1000EC008031930709F701C00FC02FEF1FEFC0E05D
:1000FC00D2E0002709930883D7CF41E0242BDDCF32
:10010C0080930202909303023F914F918F919F91A4
:10011C00CF91DF910F910FBF18952FEF27B92FEFCC
:10012C001FEFC2E0D2E0002709930883C0E0D2E0C1
:10013C0000270993088308E000930A010AE400935E
:10014C00980000270093990001E00093910001E8CA
:10015C000093900001E00093710000E10FEF0DB9E6
:10016C000FEF00939A00002700939B0001E000938F
:0C017C00910001E2009390007894FFCF06
:00000001FF
