:020000020000FC
:100000000C9433000C94B1000C94A1000C943200B9
:040010000C9432001A
:10005C000C9449000C943200189501E20EBF0FEF7E
:10006C000DBF0FEF07B9789402E0009369000DB350
:10007C0001600DBB789402E0009369000DB302603F
:10008C000DBB789478C00FB70F93DF93CF93BF93CA
:10009C00AF939F938F93513019F0613009F012C0D8
:1000AC00A0910402B09105021196AC3003E00B074D
:1000BC0049F555276627C4E0D2E000270993088349
:1000CC00AA27BB27809102029091030201968438E3
:1000DC000EE1900791F4313009F128B931E0483044
:1000EC00B1F0C2E0D2E00027099308837395763013
:1000FC0049F7222728B9772715C0809302029093DD
:10010C00030210C0A0930402B09305020BC0222777
:10011C00212F112744273327772704C000E008B983
:10012C003327DDCF8F919F91AF91BF91CF91DF910D
:10013C000F910FBF18950FB70F93513049F051E045
:10014C0048300CF005C0110F0EEF1023439500C082
:10015C000F910FBF18950FB70F93613049F061E005
:10016C0048300CF005C0110F01E0102B439500C076
:10017C000F910FBF18952FEF27B922271127C4E035
:10018C00D2E0002709930883C2E0D2E0002709934C
:10019C0008835527662733274427772700E004BDBB
:0E01AC0002E005BD01E000936E007894FFCFE5
:00000001FF
